{
  "_format": "hh-sol-artifact-1",
  "contractName": "chai",
  "sourceName": "contracts/chai.sol",
  "abi": [
    {
      "inputs": [],
      "stateMutability": "nonpayable",
      "type": "constructor"
    },
    {
      "inputs": [
        {
          "internalType": "string",
          "name": "name",
          "type": "string"
        },
        {
          "internalType": "string",
          "name": "message",
          "type": "string"
        }
      ],
      "name": "buychai",
      "outputs": [],
      "stateMutability": "payable",
      "type": "function"
    },
    {
      "inputs": [],
      "name": "getmemos",
      "outputs": [
        {
          "components": [
            {
              "internalType": "string",
              "name": "name",
              "type": "string"
            },
            {
              "internalType": "string",
              "name": "message",
              "type": "string"
            },
            {
              "internalType": "uint256",
              "name": "timestamp",
              "type": "uint256"
            },
            {
              "internalType": "address",
              "name": "from",
              "type": "address"
            }
          ],
          "internalType": "struct chai.memo[]",
          "name": "",
          "type": "tuple[]"
        }
      ],
      "stateMutability": "view",
      "type": "function"
    },
    {
      "inputs": [
        {
          "internalType": "uint256",
          "name": "",
          "type": "uint256"
        }
      ],
      "name": "memos",
      "outputs": [
        {
          "internalType": "string",
          "name": "name",
          "type": "string"
        },
        {
          "internalType": "string",
          "name": "message",
          "type": "string"
        },
        {
          "internalType": "uint256",
          "name": "timestamp",
          "type": "uint256"
        },
        {
          "internalType": "address",
          "name": "from",
          "type": "address"
        }
      ],
      "stateMutability": "view",
      "type": "function"
    }
  ],
  "bytecode": "0x608060405234801561001057600080fd5b5033600160006101000a81548173ffffffffffffffffffffffffffffffffffffffff021916908373ffffffffffffffffffffffffffffffffffffffff160217905550610c6e806100616000396000f3fe6080604052600436106100345760003560e01c806397aeeef714610039578063e8dfdf0414610055578063f6503df714610095575b600080fd5b610053600480360381019061004e91906107af565b6100c0565b005b34801561006157600080fd5b5061007c6004803603810190610077919061085d565b61025f565b60405161008c9493929190610962565b60405180910390f35b3480156100a157600080fd5b506100aa6103cf565b6040516100b79190610b49565b60405180910390f35b60003411610103576040517f08c379a00000000000000000000000000000000000000000000000000000000081526004016100fa90610bb7565b60405180910390fd5b600160009054906101000a900473ffffffffffffffffffffffffffffffffffffffff1673ffffffffffffffffffffffffffffffffffffffff166108fc349081150290604051600060405180830381858888f1935050505015801561016b573d6000803e3d6000fd5b50600060405180608001604052808481526020018381526020014281526020013373ffffffffffffffffffffffffffffffffffffffff16815250908060018154018082558091505060019003906000526020600020906004020160009091909190915060008201518160000190805190602001906101ea9291906105b2565b5060208201518160010190805190602001906102079291906105b2565b506040820151816002015560608201518160030160006101000a81548173ffffffffffffffffffffffffffffffffffffffff021916908373ffffffffffffffffffffffffffffffffffffffff16021790555050505050565b6000818154811061026f57600080fd5b906000526020600020906004020160009150905080600001805461029290610c06565b80601f01602080910402602001604051908101604052809291908181526020018280546102be90610c06565b801561030b5780601f106102e05761010080835404028352916020019161030b565b820191906000526020600020905b8154815290600101906020018083116102ee57829003601f168201915b50505050509080600101805461032090610c06565b80601f016020809104026020016040519081016040528092919081815260200182805461034c90610c06565b80156103995780601f1061036e57610100808354040283529160200191610399565b820191906000526020600020905b81548152906001019060200180831161037c57829003601f168201915b5050505050908060020154908060030160009054906101000a900473ffffffffffffffffffffffffffffffffffffffff16905084565b60606000805480602002602001604051908101604052809291908181526020016000905b828210156105a9578382906000526020600020906004020160405180608001604052908160008201805461042690610c06565b80601f016020809104026020016040519081016040528092919081815260200182805461045290610c06565b801561049f5780601f106104745761010080835404028352916020019161049f565b820191906000526020600020905b81548152906001019060200180831161048257829003601f168201915b505050505081526020016001820180546104b890610c06565b80601f01602080910402602001604051908101604052809291908181526020018280546104e490610c06565b80156105315780601f1061050657610100808354040283529160200191610531565b820191906000526020600020905b81548152906001019060200180831161051457829003601f168201915b50505050508152602001600282015481526020016003820160009054906101000a900473ffffffffffffffffffffffffffffffffffffffff1673ffffffffffffffffffffffffffffffffffffffff1673ffffffffffffffffffffffffffffffffffffffff1681525050815260200190600101906103f3565b50505050905090565b8280546105be90610c06565b90600052602060002090601f0160209004810192826105e05760008555610627565b82601f106105f957805160ff1916838001178555610627565b82800160010185558215610627579182015b8281111561062657825182559160200191906001019061060b565b5b5090506106349190610638565b5090565b5b80821115610651576000816000905550600101610639565b5090565b6000604051905090565b600080fd5b600080fd5b600080fd5b600080fd5b6000601f19601f8301169050919050565b7f4e487b7100000000000000000000000000000000000000000000000000000000600052604160045260246000fd5b6106bc82610673565b810181811067ffffffffffffffff821117156106db576106da610684565b5b80604052505050565b60006106ee610655565b90506106fa82826106b3565b919050565b600067ffffffffffffffff82111561071a57610719610684565b5b61072382610673565b9050602081019050919050565b82818337600083830152505050565b600061075261074d846106ff565b6106e4565b90508281526020810184848401111561076e5761076d61066e565b5b610779848285610730565b509392505050565b600082601f83011261079657610795610669565b5b81356107a684826020860161073f565b91505092915050565b600080604083850312156107c6576107c561065f565b5b600083013567ffffffffffffffff8111156107e4576107e3610664565b5b6107f085828601610781565b925050602083013567ffffffffffffffff81111561081157610810610664565b5b61081d85828601610781565b9150509250929050565b6000819050919050565b61083a81610827565b811461084557600080fd5b50565b60008135905061085781610831565b92915050565b6000602082840312156108735761087261065f565b5b600061088184828501610848565b91505092915050565b600081519050919050565b600082825260208201905092915050565b60005b838110156108c45780820151818401526020810190506108a9565b838111156108d3576000848401525b50505050565b60006108e48261088a565b6108ee8185610895565b93506108fe8185602086016108a6565b61090781610673565b840191505092915050565b61091b81610827565b82525050565b600073ffffffffffffffffffffffffffffffffffffffff82169050919050565b600061094c82610921565b9050919050565b61095c81610941565b82525050565b6000608082019050818103600083015261097c81876108d9565b9050818103602083015261099081866108d9565b905061099f6040830185610912565b6109ac6060830184610953565b95945050505050565b600081519050919050565b600082825260208201905092915050565b6000819050602082019050919050565b600082825260208201905092915050565b60006109fd8261088a565b610a0781856109e1565b9350610a178185602086016108a6565b610a2081610673565b840191505092915050565b610a3481610827565b82525050565b610a4381610941565b82525050565b60006080830160008301518482036000860152610a6682826109f2565b91505060208301518482036020860152610a8082826109f2565b9150506040830151610a956040860182610a2b565b506060830151610aa86060860182610a3a565b508091505092915050565b6000610abf8383610a49565b905092915050565b6000602082019050919050565b6000610adf826109b5565b610ae981856109c0565b935083602082028501610afb856109d1565b8060005b85811015610b375784840389528151610b188582610ab3565b9450610b2383610ac7565b925060208a01995050600181019050610aff565b50829750879550505050505092915050565b60006020820190508181036000830152610b638184610ad4565b905092915050565b7f706179206d6f7265207468616e20302065746865720000000000000000000000600082015250565b6000610ba1601583610895565b9150610bac82610b6b565b602082019050919050565b60006020820190508181036000830152610bd081610b94565b9050919050565b7f4e487b7100000000000000000000000000000000000000000000000000000000600052602260045260246000fd5b60006002820490506001821680610c1e57607f821691505b60208210811415610c3257610c31610bd7565b5b5091905056fea2646970667358221220dee44cf40820219f13cd11635b5040c57cf93c107869e4f59f043a44c0bab0e264736f6c634300080a0033",
  "linkReferences": {},
  "deployedLinkReferences": {}
}